{
  "contractName": "Paciente",
  "abi": [
    {
      "anonymous": false,
      "inputs": [
        {
          "indexed": false,
          "internalType": "string",
          "name": "cpf",
          "type": "string"
        },
        {
          "indexed": false,
          "internalType": "string",
          "name": "nome",
          "type": "string"
        }
      ],
      "name": "PacienteCadastrado",
      "type": "event"
    },
    {
      "inputs": [
        {
          "internalType": "string",
          "name": "_nome",
          "type": "string"
        },
        {
          "internalType": "string",
          "name": "_cpf",
          "type": "string"
        },
        {
          "internalType": "uint256",
          "name": "_idade",
          "type": "uint256"
        },
        {
          "internalType": "string",
          "name": "_endereco",
          "type": "string"
        }
      ],
      "name": "cadastrarPaciente",
      "outputs": [],
      "stateMutability": "nonpayable",
      "type": "function"
    },
    {
      "inputs": [
        {
          "internalType": "string",
          "name": "_cpf",
          "type": "string"
        }
      ],
      "name": "consultarPaciente",
      "outputs": [
        {
          "internalType": "string",
          "name": "",
          "type": "string"
        },
        {
          "internalType": "uint256",
          "name": "",
          "type": "uint256"
        },
        {
          "internalType": "string",
          "name": "",
          "type": "string"
        }
      ],
      "stateMutability": "view",
      "type": "function",
      "constant": true
    },
    {
      "inputs": [],
      "name": "listarCPFs",
      "outputs": [
        {
          "internalType": "string[]",
          "name": "",
          "type": "string[]"
        }
      ],
      "stateMutability": "view",
      "type": "function",
      "constant": true
    }
  ],
  "bytecode": "0x608060405234801561001057600080fd5b50610e4f806100206000396000f3fe608060405234801561001057600080fd5b50600436106100415760003560e01c806321e7c2e0146100465780633d5760691461006457806364c1382114610096575b600080fd5b61004e6100b2565b60405161005b9190610b05565b60405180910390f35b61007e60048036038101906100799190610787565b61018b565b60405161008d93929190610b5e565b60405180910390f35b6100b060048036038101906100ab91906107c8565b610409565b005b60606001805480602002602001604051908101604052809291908181526020016000905b828210156101825783829060005260206000200180546100f590610d61565b80601f016020809104026020016040519081016040528092919081815260200182805461012190610d61565b801561016e5780601f106101435761010080835404028352916020019161016e565b820191906000526020600020905b81548152906001019060200180831161015157829003601f168201915b5050505050815260200190600101906100d6565b50505050905090565b606060006060600080856040516101a29190610aee565b908152602001604051809103902060010180546101be90610d61565b905011610200576040517f08c379a00000000000000000000000000000000000000000000000000000000081526004016101f790610ba3565b60405180910390fd5b600080856040516102119190610aee565b908152602001604051809103902060405180608001604052908160008201805461023a90610d61565b80601f016020809104026020016040519081016040528092919081815260200182805461026690610d61565b80156102b35780601f10610288576101008083540402835291602001916102b3565b820191906000526020600020905b81548152906001019060200180831161029657829003601f168201915b505050505081526020016001820180546102cc90610d61565b80601f01602080910402602001604051908101604052809291908181526020018280546102f890610d61565b80156103455780601f1061031a57610100808354040283529160200191610345565b820191906000526020600020905b81548152906001019060200180831161032857829003601f168201915b505050505081526020016002820154815260200160038201805461036890610d61565b80601f016020809104026020016040519081016040528092919081815260200182805461039490610d61565b80156103e15780601f106103b6576101008083540402835291602001916103e1565b820191906000526020600020905b8154815290600101906020018083116103c457829003601f168201915b5050505050815250509050806000015181604001518260600151935093509350509193909250565b600084511161044d576040517f08c379a000000000000000000000000000000000000000000000000000000000815260040161044490610c23565b60405180910390fd5b6000835111610491576040517f08c379a000000000000000000000000000000000000000000000000000000000815260040161048890610c03565b60405180910390fd5b600c82116104d4576040517f08c379a00000000000000000000000000000000000000000000000000000000081526004016104cb90610bc3565b60405180910390fd5b600080846040516104e59190610aee565b9081526020016040518091039020600101805461050190610d61565b905014610543576040517f08c379a000000000000000000000000000000000000000000000000000000000815260040161053a90610be3565b60405180910390fd5b60006040518060800160405280868152602001858152602001848152602001838152509050806000856040516105799190610aee565b908152602001604051809103902060008201518160000190805190602001906105a3929190610667565b5060208201518160010190805190602001906105c0929190610667565b506040820151816002015560608201518160030190805190602001906105e7929190610667565b50905050600184908060018154018082558091505060019003906000526020600020016000909190919091509080519060200190610626929190610667565b507f48af18ae6fec3b990bbfe5a2e9c20c0b1d27fff5b81b3fedb4872cd421b48a4a8486604051610658929190610b27565b60405180910390a15050505050565b82805461067390610d61565b90600052602060002090601f01602090048101928261069557600085556106dc565b82601f106106ae57805160ff19168380011785556106dc565b828001600101855582156106dc579182015b828111156106db5782518255916020019190600101906106c0565b5b5090506106e991906106ed565b5090565b5b808211156107065760008160009055506001016106ee565b5090565b600061071d61071884610c74565b610c43565b90508281526020810184848401111561073557600080fd5b610740848285610d1f565b509392505050565b600082601f83011261075957600080fd5b813561076984826020860161070a565b91505092915050565b60008135905061078181610e02565b92915050565b60006020828403121561079957600080fd5b600082013567ffffffffffffffff8111156107b357600080fd5b6107bf84828501610748565b91505092915050565b600080600080608085870312156107de57600080fd5b600085013567ffffffffffffffff8111156107f857600080fd5b61080487828801610748565b945050602085013567ffffffffffffffff81111561082157600080fd5b61082d87828801610748565b935050604061083e87828801610772565b925050606085013567ffffffffffffffff81111561085b57600080fd5b61086787828801610748565b91505092959194509250565b600061087f83836108fc565b905092915050565b600061089282610cb4565b61089c8185610cd7565b9350836020820285016108ae85610ca4565b8060005b858110156108ea57848403895281516108cb8582610873565b94506108d683610cca565b925060208a019950506001810190506108b2565b50829750879550505050505092915050565b600061090782610cbf565b6109118185610ce8565b9350610921818560208601610d2e565b61092a81610df1565b840191505092915050565b600061094082610cbf565b61094a8185610cf9565b935061095a818560208601610d2e565b61096381610df1565b840191505092915050565b600061097982610cbf565b6109838185610d0a565b9350610993818560208601610d2e565b80840191505092915050565b60006109ac601783610cf9565b91507f50616369656e7465206e616f20656e636f6e747261646f0000000000000000006000830152602082019050919050565b60006109ec601b83610cf9565b91507f4964616465206465766520736572206d61696f722071756520313200000000006000830152602082019050919050565b6000610a2c601183610cf9565b91507f435046206a61206361646173747261646f0000000000000000000000000000006000830152602082019050919050565b6000610a6c600f83610cf9565b91507f435046206f6272696761746f72696f00000000000000000000000000000000006000830152602082019050919050565b6000610aac601083610cf9565b91507f4e6f6d65206f6272696761746f72696f000000000000000000000000000000006000830152602082019050919050565b610ae881610d15565b82525050565b6000610afa828461096e565b915081905092915050565b60006020820190508181036000830152610b1f8184610887565b905092915050565b60006040820190508181036000830152610b418185610935565b90508181036020830152610b558184610935565b90509392505050565b60006060820190508181036000830152610b788186610935565b9050610b876020830185610adf565b8181036040830152610b998184610935565b9050949350505050565b60006020820190508181036000830152610bbc8161099f565b9050919050565b60006020820190508181036000830152610bdc816109df565b9050919050565b60006020820190508181036000830152610bfc81610a1f565b9050919050565b60006020820190508181036000830152610c1c81610a5f565b9050919050565b60006020820190508181036000830152610c3c81610a9f565b9050919050565b6000604051905081810181811067ffffffffffffffff82111715610c6a57610c69610dc2565b5b8060405250919050565b600067ffffffffffffffff821115610c8f57610c8e610dc2565b5b601f19601f8301169050602081019050919050565b6000819050602082019050919050565b600081519050919050565b600081519050919050565b6000602082019050919050565b600082825260208201905092915050565b600082825260208201905092915050565b600082825260208201905092915050565b600081905092915050565b6000819050919050565b82818337600083830152505050565b60005b83811015610d4c578082015181840152602081019050610d31565b83811115610d5b576000848401525b50505050565b60006002820490506001821680610d7957607f821691505b60208210811415610d8d57610d8c610d93565b5b50919050565b7f4e487b7100000000000000000000000000000000000000000000000000000000600052602260045260246000fd5b7f4e487b7100000000000000000000000000000000000000000000000000000000600052604160045260246000fd5b6000601f19601f8301169050919050565b610e0b81610d15565b8114610e1657600080fd5b5056fea2646970667358221220741a9eb180e192d171ff2d91a97d3f7ca5910c826244cfb3df862fd5cb28832c64736f6c63430008000033",
  "immutableReferences": {},
  "source": "// SPDX-License-Identifier: MIT\npragma solidity >=0.4.22 <0.9.0;\n\ncontract Paciente {\n    struct Paciente {\n        string nome;\n        string cpf;\n        uint idade;\n        string endereco;\n    }\n\n    mapping(string => Paciente) private pacientes;\n    string[] private cpfs;\n\n    event PacienteCadastrado(string cpf, string nome);\n\n    function cadastrarPaciente(\n        string memory _nome,\n        string memory _cpf,\n        uint _idade,\n        string memory _endereco\n    ) public {\n        require(bytes(_nome).length > 0, \"Nome obrigatorio\");\n        require(bytes(_cpf).length > 0, \"CPF obrigatorio\");\n        require(_idade > 12, \"Idade deve ser maior que 12\");\n        require(bytes(pacientes[_cpf].cpf).length == 0, \"CPF ja cadastrado\");\n\n        Paciente memory novoPaciente = Paciente({\n            nome: _nome,\n            cpf: _cpf,\n            idade: _idade,\n            endereco: _endereco\n        });\n\n        pacientes[_cpf] = novoPaciente;\n        cpfs.push(_cpf);\n\n        emit PacienteCadastrado(_cpf, _nome);\n    }\n\n    function consultarPaciente(string memory _cpf) public view returns (string memory, uint, string memory) {\n        require(bytes(pacientes[_cpf].cpf).length > 0, \"Paciente nao encontrado\");\n        Paciente memory p = pacientes[_cpf];\n        return (p.nome, p.idade, p.endereco);\n    }\n\n    function listarCPFs() public view returns (string[] memory) {\n        return cpfs;\n    }\n}",
  "sourcePath": "C:\\Users\\caiof\\Desktop\\blockchain\\contracts\\Paciente.sol",
  "compiler": {
    "name": "solc",
    "version": "0.8.0+commit.c7dfd78e.Emscripten.clang"
  },
  "schemaVersion": "3.4.16",
  "updatedAt": "2025-09-25T11:50:31.148Z",
  "networkType": "ethereum",
  "devdoc": {
    "kind": "dev",
    "methods": {},
    "version": 1
  },
  "userdoc": {
    "kind": "user",
    "methods": {},
    "version": 1
  }
}